{
  "_format": "hh3-artifact-1",
  "contractName": "MultiQuizReward",
  "sourceName": "contracts/MultiQuizReward.sol",
  "abi": [
    {
      "inputs": [],
      "stateMutability": "nonpayable",
      "type": "constructor"
    },
    {
      "inputs": [
        {
          "internalType": "address",
          "name": "owner",
          "type": "address"
        }
      ],
      "name": "OwnableInvalidOwner",
      "type": "error"
    },
    {
      "inputs": [
        {
          "internalType": "address",
          "name": "account",
          "type": "address"
        }
      ],
      "name": "OwnableUnauthorizedAccount",
      "type": "error"
    },
    {
      "anonymous": false,
      "inputs": [
        {
          "indexed": true,
          "internalType": "address",
          "name": "previousOwner",
          "type": "address"
        },
        {
          "indexed": true,
          "internalType": "address",
          "name": "newOwner",
          "type": "address"
        }
      ],
      "name": "OwnershipTransferred",
      "type": "event"
    },
    {
      "inputs": [
        {
          "internalType": "address",
          "name": "user",
          "type": "address"
        },
        {
          "internalType": "uint256",
          "name": "quizId",
          "type": "uint256"
        }
      ],
      "name": "checkClaimed",
      "outputs": [
        {
          "internalType": "bool",
          "name": "",
          "type": "bool"
        }
      ],
      "stateMutability": "view",
      "type": "function"
    },
    {
      "inputs": [
        {
          "internalType": "uint256",
          "name": "quizId",
          "type": "uint256"
        }
      ],
      "name": "claimReward",
      "outputs": [],
      "stateMutability": "nonpayable",
      "type": "function"
    },
    {
      "inputs": [],
      "name": "getContractBalance",
      "outputs": [
        {
          "internalType": "uint256",
          "name": "",
          "type": "uint256"
        }
      ],
      "stateMutability": "view",
      "type": "function"
    },
    {
      "inputs": [
        {
          "internalType": "address",
          "name": "",
          "type": "address"
        },
        {
          "internalType": "uint256",
          "name": "",
          "type": "uint256"
        }
      ],
      "name": "hasClaimed",
      "outputs": [
        {
          "internalType": "bool",
          "name": "",
          "type": "bool"
        }
      ],
      "stateMutability": "view",
      "type": "function"
    },
    {
      "inputs": [],
      "name": "owner",
      "outputs": [
        {
          "internalType": "address",
          "name": "",
          "type": "address"
        }
      ],
      "stateMutability": "view",
      "type": "function"
    },
    {
      "inputs": [],
      "name": "renounceOwnership",
      "outputs": [],
      "stateMutability": "nonpayable",
      "type": "function"
    },
    {
      "inputs": [
        {
          "internalType": "uint256",
          "name": "",
          "type": "uint256"
        }
      ],
      "name": "rewardPerQuiz",
      "outputs": [
        {
          "internalType": "uint256",
          "name": "",
          "type": "uint256"
        }
      ],
      "stateMutability": "view",
      "type": "function"
    },
    {
      "inputs": [
        {
          "internalType": "uint256",
          "name": "quizId",
          "type": "uint256"
        },
        {
          "internalType": "uint256",
          "name": "amount",
          "type": "uint256"
        }
      ],
      "name": "setReward",
      "outputs": [],
      "stateMutability": "nonpayable",
      "type": "function"
    },
    {
      "inputs": [
        {
          "internalType": "address",
          "name": "newOwner",
          "type": "address"
        }
      ],
      "name": "transferOwnership",
      "outputs": [],
      "stateMutability": "nonpayable",
      "type": "function"
    },
    {
      "inputs": [
        {
          "internalType": "uint256",
          "name": "amount",
          "type": "uint256"
        }
      ],
      "name": "withdraw",
      "outputs": [],
      "stateMutability": "nonpayable",
      "type": "function"
    },
    {
      "stateMutability": "payable",
      "type": "receive"
    }
  ],
  "bytecode": "0x6080604052348015600e575f5ffd5b503380603357604051631e4fbdf760e01b81525f600482015260240160405180910390fd5b603a81603f565b50608e565b5f80546001600160a01b038381166001600160a01b0319831681178455604051919092169283917f8be0079c531659141344cd1fd0a4f28419497f9722a3daafe3b4186f6b6457e09190a35050565b6105ba8061009b5f395ff3fe608060405260043610610092575f3560e01c80638da5cb5b116100575780638da5cb5b14610176578063a47bd4961461019c578063ae169a50146101bb578063b2931096146101da578063f2fde38b14610213575f5ffd5b80632e1a7d4d1461009d57806333a28e27146100be5780634d3dccf9146100fc5780636f9fb98a14610150578063715018a614610162575f5ffd5b3661009957005b5f5ffd5b3480156100a8575f5ffd5b506100bc6100b73660046104ea565b610232565b005b3480156100c9575f5ffd5b506100e96100d83660046104ea565b60016020525f908152604090205481565b6040519081526020015b60405180910390f35b348015610107575f5ffd5b5061014061011636600461051c565b6001600160a01b03919091165f908152600260209081526040808320938352929052205460ff1690565b60405190151581526020016100f3565b34801561015b575f5ffd5b50476100e9565b34801561016d575f5ffd5b506100bc6102ba565b348015610181575f5ffd5b505f546040516001600160a01b0390911681526020016100f3565b3480156101a7575f5ffd5b506100bc6101b6366004610544565b6102cd565b3480156101c6575f5ffd5b506100bc6101d53660046104ea565b6102e6565b3480156101e5575f5ffd5b506101406101f436600461051c565b600260209081525f928352604080842090915290825290205460ff1681565b34801561021e575f5ffd5b506100bc61022d366004610564565b610432565b61023a61046f565b804710156102805760405162461bcd60e51b815260206004820152600e60248201526d09cdee840cadcdeeaced0408aa8960931b60448201526064015b60405180910390fd5b5f80546040516001600160a01b039091169183156108fc02918491818181858888f193505050501580156102b6573d5f5f3e3d5ffd5b5050565b6102c261046f565b6102cb5f61049b565b565b6102d561046f565b5f9182526001602052604090912055565b335f90815260026020908152604080832084845290915290205460ff16156103425760405162461bcd60e51b815260206004820152600f60248201526e105b1c9958591e4818db185a5b5959608a1b6044820152606401610277565b5f81815260016020526040902054806103925760405162461bcd60e51b8152602060048201526012602482015271145d5a5e881a185cc81b9bc81c995dd85c9960721b6044820152606401610277565b804710156103e25760405162461bcd60e51b815260206004820152601a60248201527f4e6f7420656e6f7567682045544820696e20636f6e74726163740000000000006044820152606401610277565b335f818152600260209081526040808320868452909152808220805460ff191660011790555183156108fc0291849190818181858888f1935050505015801561042d573d5f5f3e3d5ffd5b505050565b61043a61046f565b6001600160a01b03811661046357604051631e4fbdf760e01b81525f6004820152602401610277565b61046c8161049b565b50565b5f546001600160a01b031633146102cb5760405163118cdaa760e01b8152336004820152602401610277565b5f80546001600160a01b038381166001600160a01b0319831681178455604051919092169283917f8be0079c531659141344cd1fd0a4f28419497f9722a3daafe3b4186f6b6457e09190a35050565b5f602082840312156104fa575f5ffd5b5035919050565b80356001600160a01b0381168114610517575f5ffd5b919050565b5f5f6040838503121561052d575f5ffd5b61053683610501565b946020939093013593505050565b5f5f60408385031215610555575f5ffd5b50508035926020909101359150565b5f60208284031215610574575f5ffd5b61057d82610501565b939250505056fea2646970667358221220a6ab951433cfee73dc9e09dcd5f46f5ca7e348f7f923b9655b2d7d8b6d3fac0364736f6c634300081e0033",
  "linkReferences": {},
  "deployedLinkReferences": {},
  "immutableReferences": {},
  "inputSourceName": "project/contracts/MultiQuizReward.sol",
  "buildInfoId": "solc-0_8_30-190f9b0b09aecb4922c27acb4cc00dc280b9a22b"
}