{
  "_format": "hh3-artifact-1",
  "contractName": "MyNFT",
  "sourceName": "contracts/MyNFT.sol",
  "abi": [
    {
      "inputs": [],
      "stateMutability": "nonpayable",
      "type": "constructor"
    },
    {
      "inputs": [
        {
          "internalType": "address",
          "name": "sender",
          "type": "address"
        },
        {
          "internalType": "uint256",
          "name": "tokenId",
          "type": "uint256"
        },
        {
          "internalType": "address",
          "name": "owner",
          "type": "address"
        }
      ],
      "name": "ERC721IncorrectOwner",
      "type": "error"
    },
    {
      "inputs": [
        {
          "internalType": "address",
          "name": "operator",
          "type": "address"
        },
        {
          "internalType": "uint256",
          "name": "tokenId",
          "type": "uint256"
        }
      ],
      "name": "ERC721InsufficientApproval",
      "type": "error"
    },
    {
      "inputs": [
        {
          "internalType": "address",
          "name": "approver",
          "type": "address"
        }
      ],
      "name": "ERC721InvalidApprover",
      "type": "error"
    },
    {
      "inputs": [
        {
          "internalType": "address",
          "name": "operator",
          "type": "address"
        }
      ],
      "name": "ERC721InvalidOperator",
      "type": "error"
    },
    {
      "inputs": [
        {
          "internalType": "address",
          "name": "owner",
          "type": "address"
        }
      ],
      "name": "ERC721InvalidOwner",
      "type": "error"
    },
    {
      "inputs": [
        {
          "internalType": "address",
          "name": "receiver",
          "type": "address"
        }
      ],
      "name": "ERC721InvalidReceiver",
      "type": "error"
    },
    {
      "inputs": [
        {
          "internalType": "address",
          "name": "sender",
          "type": "address"
        }
      ],
      "name": "ERC721InvalidSender",
      "type": "error"
    },
    {
      "inputs": [
        {
          "internalType": "uint256",
          "name": "tokenId",
          "type": "uint256"
        }
      ],
      "name": "ERC721NonexistentToken",
      "type": "error"
    },
    {
      "inputs": [
        {
          "internalType": "address",
          "name": "owner",
          "type": "address"
        }
      ],
      "name": "OwnableInvalidOwner",
      "type": "error"
    },
    {
      "inputs": [
        {
          "internalType": "address",
          "name": "account",
          "type": "address"
        }
      ],
      "name": "OwnableUnauthorizedAccount",
      "type": "error"
    },
    {
      "anonymous": false,
      "inputs": [
        {
          "indexed": true,
          "internalType": "address",
          "name": "owner",
          "type": "address"
        },
        {
          "indexed": true,
          "internalType": "address",
          "name": "approved",
          "type": "address"
        },
        {
          "indexed": true,
          "internalType": "uint256",
          "name": "tokenId",
          "type": "uint256"
        }
      ],
      "name": "Approval",
      "type": "event"
    },
    {
      "anonymous": false,
      "inputs": [
        {
          "indexed": true,
          "internalType": "address",
          "name": "owner",
          "type": "address"
        },
        {
          "indexed": true,
          "internalType": "address",
          "name": "operator",
          "type": "address"
        },
        {
          "indexed": false,
          "internalType": "bool",
          "name": "approved",
          "type": "bool"
        }
      ],
      "name": "ApprovalForAll",
      "type": "event"
    },
    {
      "anonymous": false,
      "inputs": [
        {
          "indexed": false,
          "internalType": "uint256",
          "name": "_fromTokenId",
          "type": "uint256"
        },
        {
          "indexed": false,
          "internalType": "uint256",
          "name": "_toTokenId",
          "type": "uint256"
        }
      ],
      "name": "BatchMetadataUpdate",
      "type": "event"
    },
    {
      "anonymous": false,
      "inputs": [
        {
          "indexed": false,
          "internalType": "uint256",
          "name": "_tokenId",
          "type": "uint256"
        }
      ],
      "name": "MetadataUpdate",
      "type": "event"
    },
    {
      "anonymous": false,
      "inputs": [
        {
          "indexed": true,
          "internalType": "address",
          "name": "previousOwner",
          "type": "address"
        },
        {
          "indexed": true,
          "internalType": "address",
          "name": "newOwner",
          "type": "address"
        }
      ],
      "name": "OwnershipTransferred",
      "type": "event"
    },
    {
      "anonymous": false,
      "inputs": [
        {
          "indexed": true,
          "internalType": "address",
          "name": "from",
          "type": "address"
        },
        {
          "indexed": true,
          "internalType": "address",
          "name": "to",
          "type": "address"
        },
        {
          "indexed": true,
          "internalType": "uint256",
          "name": "tokenId",
          "type": "uint256"
        }
      ],
      "name": "Transfer",
      "type": "event"
    },
    {
      "inputs": [
        {
          "internalType": "address",
          "name": "to",
          "type": "address"
        },
        {
          "internalType": "uint256",
          "name": "tokenId",
          "type": "uint256"
        }
      ],
      "name": "approve",
      "outputs": [],
      "stateMutability": "nonpayable",
      "type": "function"
    },
    {
      "inputs": [
        {
          "internalType": "address",
          "name": "owner",
          "type": "address"
        }
      ],
      "name": "balanceOf",
      "outputs": [
        {
          "internalType": "uint256",
          "name": "",
          "type": "uint256"
        }
      ],
      "stateMutability": "view",
      "type": "function"
    },
    {
      "inputs": [
        {
          "internalType": "uint256",
          "name": "tokenId",
          "type": "uint256"
        }
      ],
      "name": "getApproved",
      "outputs": [
        {
          "internalType": "address",
          "name": "",
          "type": "address"
        }
      ],
      "stateMutability": "view",
      "type": "function"
    },
    {
      "inputs": [],
      "name": "getMintNum",
      "outputs": [
        {
          "internalType": "uint256",
          "name": "",
          "type": "uint256"
        }
      ],
      "stateMutability": "view",
      "type": "function"
    },
    {
      "inputs": [
        {
          "internalType": "address",
          "name": "user",
          "type": "address"
        }
      ],
      "name": "hasNFT",
      "outputs": [
        {
          "internalType": "bool",
          "name": "",
          "type": "bool"
        }
      ],
      "stateMutability": "view",
      "type": "function"
    },
    {
      "inputs": [
        {
          "internalType": "address",
          "name": "owner",
          "type": "address"
        },
        {
          "internalType": "address",
          "name": "operator",
          "type": "address"
        }
      ],
      "name": "isApprovedForAll",
      "outputs": [
        {
          "internalType": "bool",
          "name": "",
          "type": "bool"
        }
      ],
      "stateMutability": "view",
      "type": "function"
    },
    {
      "inputs": [],
      "name": "mintCert",
      "outputs": [],
      "stateMutability": "nonpayable",
      "type": "function"
    },
    {
      "inputs": [],
      "name": "name",
      "outputs": [
        {
          "internalType": "string",
          "name": "",
          "type": "string"
        }
      ],
      "stateMutability": "view",
      "type": "function"
    },
    {
      "inputs": [],
      "name": "owner",
      "outputs": [
        {
          "internalType": "address",
          "name": "",
          "type": "address"
        }
      ],
      "stateMutability": "view",
      "type": "function"
    },
    {
      "inputs": [
        {
          "internalType": "uint256",
          "name": "tokenId",
          "type": "uint256"
        }
      ],
      "name": "ownerOf",
      "outputs": [
        {
          "internalType": "address",
          "name": "",
          "type": "address"
        }
      ],
      "stateMutability": "view",
      "type": "function"
    },
    {
      "inputs": [],
      "name": "renounceOwnership",
      "outputs": [],
      "stateMutability": "nonpayable",
      "type": "function"
    },
    {
      "inputs": [
        {
          "internalType": "address",
          "name": "from",
          "type": "address"
        },
        {
          "internalType": "address",
          "name": "to",
          "type": "address"
        },
        {
          "internalType": "uint256",
          "name": "tokenId",
          "type": "uint256"
        }
      ],
      "name": "safeTransferFrom",
      "outputs": [],
      "stateMutability": "nonpayable",
      "type": "function"
    },
    {
      "inputs": [
        {
          "internalType": "address",
          "name": "from",
          "type": "address"
        },
        {
          "internalType": "address",
          "name": "to",
          "type": "address"
        },
        {
          "internalType": "uint256",
          "name": "tokenId",
          "type": "uint256"
        },
        {
          "internalType": "bytes",
          "name": "data",
          "type": "bytes"
        }
      ],
      "name": "safeTransferFrom",
      "outputs": [],
      "stateMutability": "nonpayable",
      "type": "function"
    },
    {
      "inputs": [
        {
          "internalType": "address",
          "name": "operator",
          "type": "address"
        },
        {
          "internalType": "bool",
          "name": "approved",
          "type": "bool"
        }
      ],
      "name": "setApprovalForAll",
      "outputs": [],
      "stateMutability": "nonpayable",
      "type": "function"
    },
    {
      "inputs": [
        {
          "internalType": "bytes4",
          "name": "interfaceId",
          "type": "bytes4"
        }
      ],
      "name": "supportsInterface",
      "outputs": [
        {
          "internalType": "bool",
          "name": "",
          "type": "bool"
        }
      ],
      "stateMutability": "view",
      "type": "function"
    },
    {
      "inputs": [],
      "name": "symbol",
      "outputs": [
        {
          "internalType": "string",
          "name": "",
          "type": "string"
        }
      ],
      "stateMutability": "view",
      "type": "function"
    },
    {
      "inputs": [
        {
          "internalType": "uint256",
          "name": "tokenId",
          "type": "uint256"
        }
      ],
      "name": "tokenURI",
      "outputs": [
        {
          "internalType": "string",
          "name": "",
          "type": "string"
        }
      ],
      "stateMutability": "view",
      "type": "function"
    },
    {
      "inputs": [
        {
          "internalType": "address",
          "name": "from",
          "type": "address"
        },
        {
          "internalType": "address",
          "name": "to",
          "type": "address"
        },
        {
          "internalType": "uint256",
          "name": "tokenId",
          "type": "uint256"
        }
      ],
      "name": "transferFrom",
      "outputs": [],
      "stateMutability": "nonpayable",
      "type": "function"
    },
    {
      "inputs": [
        {
          "internalType": "address",
          "name": "newOwner",
          "type": "address"
        }
      ],
      "name": "transferOwnership",
      "outputs": [],
      "stateMutability": "nonpayable",
      "type": "function"
    }
  ],
  "bytecode": "0x608060405234801561000f575f5ffd5b5033604051806040016040528060028152602001614f4360f01b8152506040518060400160405280600781526020016613d0cb50d95c9d60ca1b815250815f908161005a919061018f565b506001610067828261018f565b5050506001600160a01b03811661009757604051631e4fbdf760e01b81525f600482015260240160405180910390fd5b6100a0816100a6565b50610249565b600780546001600160a01b038381166001600160a01b0319831681179093556040519116919082907f8be0079c531659141344cd1fd0a4f28419497f9722a3daafe3b4186f6b6457e0905f90a35050565b634e487b7160e01b5f52604160045260245ffd5b600181811c9082168061011f57607f821691505b60208210810361013d57634e487b7160e01b5f52602260045260245ffd5b50919050565b601f82111561018a57805f5260205f20601f840160051c810160208510156101685750805b601f840160051c820191505b81811015610187575f8155600101610174565b50505b505050565b81516001600160401b038111156101a8576101a86100f7565b6101bc816101b6845461010b565b84610143565b6020601f8211600181146101ee575f83156101d75750848201515b5f19600385901b1c1916600184901b178455610187565b5f84815260208120601f198516915b8281101561021d57878501518255602094850194600190920191016101fd565b508482101561023a57868401515f19600387901b60f8161c191681555b50505050600190811b01905550565b61122a806102565f395ff3fe608060405234801561000f575f5ffd5b506004361061011c575f3560e01c8063785f8ee3116100a9578063b88d4fde1161006e578063b88d4fde14610246578063c06067e314610259578063c87b56dd14610261578063e985e9c514610274578063f2fde38b14610287575f5ffd5b8063785f8ee3146101ff5780638da5cb5b1461021257806395d89b4114610223578063a22cb4651461022b578063b5c87e481461023e575f5ffd5b806323b872dd116100ef57806323b872dd1461019d57806342842e0e146101b05780636352211e146101c357806370a08231146101d6578063715018a6146101f7575f5ffd5b806301ffc9a71461012057806306fdde0314610148578063081812fc1461015d578063095ea7b314610188575b5f5ffd5b61013361012e366004610e8c565b61029a565b60405190151581526020015b60405180910390f35b6101506102c4565b60405161013f9190610ed5565b61017061016b366004610ee7565b610353565b6040516001600160a01b03909116815260200161013f565b61019b610196366004610f19565b61037a565b005b61019b6101ab366004610f41565b610389565b61019b6101be366004610f41565b610417565b6101706101d1366004610ee7565b610436565b6101e96101e4366004610f7b565b610440565b60405190815260200161013f565b61019b610485565b61013361020d366004610f7b565b610498565b6007546001600160a01b0316610170565b6101506104ac565b61019b610239366004610f94565b6104bb565b6008546101e9565b61019b610254366004610fe1565b6104c6565b61019b6104de565b61015061026f366004610ee7565b610501565b6101336102823660046110be565b610600565b61019b610295366004610f7b565b61062d565b5f6001600160e01b03198216632483248360e11b14806102be57506102be82610667565b92915050565b60605f80546102d2906110ef565b80601f01602080910402602001604051908101604052809291908181526020018280546102fe906110ef565b80156103495780601f1061032057610100808354040283529160200191610349565b820191905f5260205f20905b81548152906001019060200180831161032c57829003601f168201915b5050505050905090565b5f61035d826106b6565b505f828152600460205260409020546001600160a01b03166102be565b6103858282336106ee565b5050565b6001600160a01b0382166103b757604051633250574960e11b81525f60048201526024015b60405180910390fd5b5f6103c38383336106fb565b9050836001600160a01b0316816001600160a01b031614610411576040516364283d7b60e01b81526001600160a01b03808616600483015260248201849052821660448201526064016103ae565b50505050565b61043183838360405180602001604052805f8152506104c6565b505050565b5f6102be826106b6565b5f6001600160a01b03821661046a576040516322718ad960e21b81525f60048201526024016103ae565b506001600160a01b03165f9081526003602052604090205490565b61048d6107ed565b6104965f61081a565b565b5f5f6104a383610440565b15159392505050565b6060600180546102d2906110ef565b61038533838361086b565b6104d1848484610389565b6104113385858585610909565b600880549081905f6104ef83611127565b91905055506104fe3382610a31565b50565b606061050c826106b6565b505f8281526006602052604081208054610525906110ef565b80601f0160208091040260200160405190810160405280929190818152602001828054610551906110ef565b801561059c5780601f106105735761010080835404028352916020019161059c565b820191905f5260205f20905b81548152906001019060200180831161057f57829003601f168201915b505050505090505f6105ac610a4a565b905080515f036105bd575092915050565b8151156105ef5780826040516020016105d7929190611162565b60405160208183030381529060405292505050919050565b6105f884610a6a565b949350505050565b6001600160a01b039182165f90815260056020908152604080832093909416825291909152205460ff1690565b6106356107ed565b6001600160a01b03811661065e57604051631e4fbdf760e01b81525f60048201526024016103ae565b6104fe8161081a565b5f6001600160e01b031982166380ac58cd60e01b148061069757506001600160e01b03198216635b5e139f60e01b145b806102be57506301ffc9a760e01b6001600160e01b03198316146102be565b5f818152600260205260408120546001600160a01b0316806102be57604051637e27328960e01b8152600481018490526024016103ae565b6104318383836001610acf565b5f828152600260205260408120546001600160a01b039081169083161561072757610727818486610bd3565b6001600160a01b03811615610761576107425f855f5f610acf565b6001600160a01b0381165f90815260036020526040902080545f190190555b6001600160a01b0385161561078f576001600160a01b0385165f908152600360205260409020805460010190555b5f8481526002602052604080822080546001600160a01b0319166001600160a01b0389811691821790925591518793918516917fddf252ad1be2c89b69c2b068fc378daa952ba7f163c4a11628f55a4df523b3ef91a4949350505050565b6007546001600160a01b031633146104965760405163118cdaa760e01b81523360048201526024016103ae565b600780546001600160a01b038381166001600160a01b0319831681179093556040519116919082907f8be0079c531659141344cd1fd0a4f28419497f9722a3daafe3b4186f6b6457e0905f90a35050565b6001600160a01b03821661089d57604051630b61174360e31b81526001600160a01b03831660048201526024016103ae565b6001600160a01b038381165f81815260056020908152604080832094871680845294825291829020805460ff191686151590811790915591519182527f17307eab39ab6107e8899845ad3d59bd9653f200f220920489ca2b5937696c31910160405180910390a3505050565b6001600160a01b0383163b15610a2a57604051630a85bd0160e11b81526001600160a01b0384169063150b7a029061094b908890889087908790600401611176565b6020604051808303815f875af1925050508015610985575060408051601f3d908101601f19168201909252610982918101906111b2565b60015b6109ec573d8080156109b2576040519150601f19603f3d011682016040523d82523d5f602084013e6109b7565b606091505b5080515f036109e457604051633250574960e11b81526001600160a01b03851660048201526024016103ae565b805160208201fd5b6001600160e01b03198116630a85bd0160e11b14610a2857604051633250574960e11b81526001600160a01b03851660048201526024016103ae565b505b5050505050565b610385828260405180602001604052805f815250610c37565b60606040518060600160405280602781526020016111ce60279139905090565b6060610a75826106b6565b505f610a7f610a4a565b90505f815111610a9d5760405180602001604052805f815250610ac8565b80610aa784610c4e565b604051602001610ab8929190611162565b6040516020818303038152906040525b9392505050565b8080610ae357506001600160a01b03821615155b15610ba4575f610af2846106b6565b90506001600160a01b03831615801590610b1e5750826001600160a01b0316816001600160a01b031614155b8015610b315750610b2f8184610600565b155b15610b5a5760405163a9fbf51f60e01b81526001600160a01b03841660048201526024016103ae565b8115610ba25783856001600160a01b0316826001600160a01b03167f8c5be1e5ebec7d5bd14f71427d1e84f3dd0314c0f7b2291e5b200ac8c7c3b92560405160405180910390a45b505b50505f90815260046020526040902080546001600160a01b0319166001600160a01b0392909216919091179055565b610bde838383610cde565b610431576001600160a01b038316610c0c57604051637e27328960e01b8152600481018290526024016103ae565b60405163177e802f60e01b81526001600160a01b0383166004820152602481018290526044016103ae565b610c418383610d3f565b610431335f858585610909565b60605f610c5a83610da0565b60010190505f8167ffffffffffffffff811115610c7957610c79610fcd565b6040519080825280601f01601f191660200182016040528015610ca3576020820181803683370190505b5090508181016020015b5f19016f181899199a1a9b1b9c1cb0b131b232b360811b600a86061a8153600a8504945084610cad57509392505050565b5f6001600160a01b038316158015906105f85750826001600160a01b0316846001600160a01b03161480610d175750610d178484610600565b806105f85750505f908152600460205260409020546001600160a01b03908116911614919050565b6001600160a01b038216610d6857604051633250574960e11b81525f60048201526024016103ae565b5f610d7483835f6106fb565b90506001600160a01b03811615610431576040516339e3563760e11b81525f60048201526024016103ae565b5f8072184f03e93ff9f4daa797ed6e38ed64bf6a1f0160401b8310610dde5772184f03e93ff9f4daa797ed6e38ed64bf6a1f0160401b830492506040015b6d04ee2d6d415b85acef81000000008310610e0a576d04ee2d6d415b85acef8100000000830492506020015b662386f26fc100008310610e2857662386f26fc10000830492506010015b6305f5e1008310610e40576305f5e100830492506008015b6127108310610e5457612710830492506004015b60648310610e66576064830492506002015b600a83106102be5760010192915050565b6001600160e01b0319811681146104fe575f5ffd5b5f60208284031215610e9c575f5ffd5b8135610ac881610e77565b5f81518084528060208401602086015e5f602082860101526020601f19601f83011685010191505092915050565b602081525f610ac86020830184610ea7565b5f60208284031215610ef7575f5ffd5b5035919050565b80356001600160a01b0381168114610f14575f5ffd5b919050565b5f5f60408385031215610f2a575f5ffd5b610f3383610efe565b946020939093013593505050565b5f5f5f60608486031215610f53575f5ffd5b610f5c84610efe565b9250610f6a60208501610efe565b929592945050506040919091013590565b5f60208284031215610f8b575f5ffd5b610ac882610efe565b5f5f60408385031215610fa5575f5ffd5b610fae83610efe565b915060208301358015158114610fc2575f5ffd5b809150509250929050565b634e487b7160e01b5f52604160045260245ffd5b5f5f5f5f60808587031215610ff4575f5ffd5b610ffd85610efe565b935061100b60208601610efe565b925060408501359150606085013567ffffffffffffffff81111561102d575f5ffd5b8501601f8101871361103d575f5ffd5b803567ffffffffffffffff81111561105757611057610fcd565b604051601f8201601f19908116603f0116810167ffffffffffffffff8111828210171561108657611086610fcd565b60405281815282820160200189101561109d575f5ffd5b816020840160208301375f6020838301015280935050505092959194509250565b5f5f604083850312156110cf575f5ffd5b6110d883610efe565b91506110e660208401610efe565b90509250929050565b600181811c9082168061110357607f821691505b60208210810361112157634e487b7160e01b5f52602260045260245ffd5b50919050565b5f6001820161114457634e487b7160e01b5f52601160045260245ffd5b5060010190565b5f81518060208401855e5f93019283525090919050565b5f6105f8611170838661114b565b8461114b565b6001600160a01b03858116825284166020820152604081018390526080606082018190525f906111a890830184610ea7565b9695505050505050565b5f602082840312156111c2575f5ffd5b8151610ac881610e7756fe68747470733a2f2f6578616d706c652e636f6d2f6d657461646174612f66697865642e6a736f6ea2646970667358221220c3a878885615a2fe6ca5171ac9604cf36aae78757aa27d4a02d341207447a14f64736f6c634300081e0033",
  "linkReferences": {},
  "deployedLinkReferences": {},
  "immutableReferences": {},
  "inputSourceName": "project/contracts/MyNFT.sol",
  "buildInfoId": "solc-0_8_30-6a3f7be9435e6fce900fa06e25bb017c4775ab46"
}