{
  "_format": "hh3-artifact-1",
  "contractName": "PaidAccess",
  "sourceName": "contracts/PaidAccess.sol",
  "abi": [
    {
      "inputs": [],
      "stateMutability": "nonpayable",
      "type": "constructor"
    },
    {
      "inputs": [
        {
          "internalType": "address",
          "name": "owner",
          "type": "address"
        }
      ],
      "name": "OwnableInvalidOwner",
      "type": "error"
    },
    {
      "inputs": [
        {
          "internalType": "address",
          "name": "account",
          "type": "address"
        }
      ],
      "name": "OwnableUnauthorizedAccount",
      "type": "error"
    },
    {
      "anonymous": false,
      "inputs": [
        {
          "indexed": true,
          "internalType": "address",
          "name": "previousOwner",
          "type": "address"
        },
        {
          "indexed": true,
          "internalType": "address",
          "name": "newOwner",
          "type": "address"
        }
      ],
      "name": "OwnershipTransferred",
      "type": "event"
    },
    {
      "inputs": [
        {
          "internalType": "address",
          "name": "",
          "type": "address"
        },
        {
          "internalType": "uint256",
          "name": "",
          "type": "uint256"
        }
      ],
      "name": "access",
      "outputs": [
        {
          "internalType": "bool",
          "name": "",
          "type": "bool"
        }
      ],
      "stateMutability": "view",
      "type": "function"
    },
    {
      "inputs": [
        {
          "internalType": "address",
          "name": "user",
          "type": "address"
        },
        {
          "internalType": "uint256",
          "name": "pageId",
          "type": "uint256"
        }
      ],
      "name": "checkAccess",
      "outputs": [
        {
          "internalType": "bool",
          "name": "",
          "type": "bool"
        }
      ],
      "stateMutability": "view",
      "type": "function"
    },
    {
      "inputs": [],
      "name": "owner",
      "outputs": [
        {
          "internalType": "address",
          "name": "",
          "type": "address"
        }
      ],
      "stateMutability": "view",
      "type": "function"
    },
    {
      "inputs": [
        {
          "internalType": "uint256",
          "name": "pageId",
          "type": "uint256"
        }
      ],
      "name": "payForPage",
      "outputs": [],
      "stateMutability": "payable",
      "type": "function"
    },
    {
      "inputs": [],
      "name": "price",
      "outputs": [
        {
          "internalType": "uint256",
          "name": "",
          "type": "uint256"
        }
      ],
      "stateMutability": "view",
      "type": "function"
    },
    {
      "inputs": [],
      "name": "renounceOwnership",
      "outputs": [],
      "stateMutability": "nonpayable",
      "type": "function"
    },
    {
      "inputs": [
        {
          "internalType": "address",
          "name": "newOwner",
          "type": "address"
        }
      ],
      "name": "transferOwnership",
      "outputs": [],
      "stateMutability": "nonpayable",
      "type": "function"
    },
    {
      "inputs": [],
      "name": "withdraw",
      "outputs": [],
      "stateMutability": "nonpayable",
      "type": "function"
    }
  ],
  "bytecode": "0x6080604052662386f26fc100006001553480156019575f5ffd5b503380603e57604051631e4fbdf760e01b81525f600482015260240160405180910390fd5b604581604a565b506099565b5f80546001600160a01b038381166001600160a01b0319831681178455604051919092169283917f8be0079c531659141344cd1fd0a4f28419497f9722a3daafe3b4186f6b6457e09190a35050565b6103e0806100a65f395ff3fe608060405260043610610079575f3560e01c8063a035b1fe1161004c578063a035b1fe14610126578063f2fde38b14610149578063f581fb6814610168578063fe807792146101a1575f5ffd5b80633ccfd60b1461007d578063715018a6146100935780638da5cb5b146100a75780638f6247b4146100d2575b5f5ffd5b348015610088575f5ffd5b506100916101b4565b005b34801561009e575f5ffd5b506100916101f6565b3480156100b2575f5ffd5b505f546040516001600160a01b0390911681526020015b60405180910390f35b3480156100dd575f5ffd5b506101166100ec36600461034b565b6001600160a01b03919091165f908152600260209081526040808320938352929052205460ff1690565b60405190151581526020016100c9565b348015610131575f5ffd5b5061013b60015481565b6040519081526020016100c9565b348015610154575f5ffd5b50610091610163366004610373565b610209565b348015610173575f5ffd5b5061011661018236600461034b565b600260209081525f928352604080842090915290825290205460ff1681565b6100916101af366004610393565b610248565b6101bc6102b5565b5f80546040516001600160a01b03909116914780156108fc02929091818181858888f193505050501580156101f3573d5f5f3e3d5ffd5b50565b6101fe6102b5565b6102075f6102e1565b565b6102116102b5565b6001600160a01b03811661023f57604051631e4fbdf760e01b81525f60048201526024015b60405180910390fd5b6101f3816102e1565b6001543410156102905760405162461bcd60e51b8152602060048201526013602482015272139bdd08195b9bdd59da08115512081cd95b9d606a1b6044820152606401610236565b335f90815260026020908152604080832093835292905220805460ff19166001179055565b5f546001600160a01b031633146102075760405163118cdaa760e01b8152336004820152602401610236565b5f80546001600160a01b038381166001600160a01b0319831681178455604051919092169283917f8be0079c531659141344cd1fd0a4f28419497f9722a3daafe3b4186f6b6457e09190a35050565b80356001600160a01b0381168114610346575f5ffd5b919050565b5f5f6040838503121561035c575f5ffd5b61036583610330565b946020939093013593505050565b5f60208284031215610383575f5ffd5b61038c82610330565b9392505050565b5f602082840312156103a3575f5ffd5b503591905056fea2646970667358221220c43c03e22803a97815410ff18181d5b28c5d6f0810c02fab4957762117b6ac9c64736f6c634300081e0033",
  "linkReferences": {},
  "deployedLinkReferences": {},
  "immutableReferences": {},
  "inputSourceName": "project/contracts/PaidAccess.sol",
  "buildInfoId": "solc-0_8_30-e033d497b8399c31e5c49ee6c4edc9e857e23441"
}